{
  "contractName": "Faucet",
  "abi": [
    {
      "inputs": [
        {
          "internalType": "uint256",
          "name": "",
          "type": "uint256"
        }
      ],
      "name": "funders",
      "outputs": [
        {
          "internalType": "address",
          "name": "",
          "type": "address"
        }
      ],
      "stateMutability": "view",
      "type": "function",
      "constant": true
    },
    {
      "stateMutability": "payable",
      "type": "receive",
      "payable": true
    },
    {
      "inputs": [],
      "name": "addFunds",
      "outputs": [],
      "stateMutability": "payable",
      "type": "function",
      "payable": true
    },
    {
      "inputs": [],
      "name": "justTesting",
      "outputs": [
        {
          "internalType": "uint256",
          "name": "",
          "type": "uint256"
        }
      ],
      "stateMutability": "pure",
      "type": "function",
      "constant": true
    },
    {
      "inputs": [],
      "name": "getAllFunders",
      "outputs": [
        {
          "internalType": "address[]",
          "name": "",
          "type": "address[]"
        }
      ],
      "stateMutability": "view",
      "type": "function",
      "constant": true
    }
  ],
  "bytecode": "0x608060405234801561001057600080fd5b5061042b806100206000396000f3fe6080604052600436106100435760003560e01c80636fbbb55d1461004f578063a23f8a3d1461007a578063a26759cb146100a5578063dc0d3dff146100af5761004a565b3661004a57005b600080fd5b34801561005b57600080fd5b506100646100ec565b6040516100719190610317565b60405180910390f35b34801561008657600080fd5b5061008f61017a565b60405161009c9190610352565b60405180910390f35b6100ad610183565b005b3480156100bb57600080fd5b506100d660048036038101906100d1919061039e565b6101e8565b6040516100e391906103da565b60405180910390f35b6060600080548060200260200160405190810160405280929190818152602001828054801561017057602002820191906000526020600020905b8160009054906101000a900473ffffffffffffffffffffffffffffffffffffffff1673ffffffffffffffffffffffffffffffffffffffff1681526020019060010190808311610126575b5050505050905090565b60006004905090565b6000339080600181540180825580915050600190039060005260206000200160009091909190916101000a81548173ffffffffffffffffffffffffffffffffffffffff021916908373ffffffffffffffffffffffffffffffffffffffff160217905550565b600081815481106101f857600080fd5b906000526020600020016000915054906101000a900473ffffffffffffffffffffffffffffffffffffffff1681565b600081519050919050565b600082825260208201905092915050565b6000819050602082019050919050565b600073ffffffffffffffffffffffffffffffffffffffff82169050919050565b600061027e82610253565b9050919050565b61028e81610273565b82525050565b60006102a08383610285565b60208301905092915050565b6000602082019050919050565b60006102c482610227565b6102ce8185610232565b93506102d983610243565b8060005b8381101561030a5781516102f18882610294565b97506102fc836102ac565b9250506001810190506102dd565b5085935050505092915050565b6000602082019050818103600083015261033181846102b9565b905092915050565b6000819050919050565b61034c81610339565b82525050565b60006020820190506103676000830184610343565b92915050565b600080fd5b61037b81610339565b811461038657600080fd5b50565b60008135905061039881610372565b92915050565b6000602082840312156103b4576103b361036d565b5b60006103c284828501610389565b91505092915050565b6103d481610273565b82525050565b60006020820190506103ef60008301846103cb565b9291505056fea2646970667358221220b389590c41633005fe9194348e71bd6bce8f41bae4f37c0d3c7d6de613f2da3764736f6c63430008130033",
  "immutableReferences": {},
  "source": "// SPDX-License-Identifier: MIT\r\npragma solidity >=0.8.19 <0.9.0;\r\n\r\ncontract Faucet {\r\n\r\n  // Storage variables\r\n  // uint public funds = 1000; //unit = uint256 =10100...\r\n  // int public counter = -10; \r\n  // uint32 public test = 4294967295;\r\n\r\n  address[] public funders;\r\n\r\n  receive() external payable {} \r\n\r\n  function addFunds() external payable {\r\n    funders.push(msg.sender);\r\n  }\r\n\r\n  function justTesting() external pure returns(uint){\r\n    return 2 + 2;\r\n  }\r\n \r\n function getAllFunders() external view returns(address[] memory){\r\n  return funders;\r\n }\r\n\r\n\r\n\r\n}\r\n\r\n\r\n\r\n// const instance = await Faucet.deployed()\r\n// truffle migrate --reset\r\n//  truffle console",
  "sourcePath": "C:\\Users\\hassa\\OneDrive\\Desktop\\Projects\\blockchain\\faucet\\contracts\\FaucetContract.sol",
  "compiler": {
    "name": "solc",
    "version": "0.8.19+commit.7dd6d404.Emscripten.clang"
  },
  "schemaVersion": "3.4.16",
  "updatedAt": "2024-09-10T08:42:44.561Z",
  "networkType": "ethereum",
  "devdoc": {
    "kind": "dev",
    "methods": {},
    "version": 1
  },
  "userdoc": {
    "kind": "user",
    "methods": {},
    "version": 1
  }
}