{
  "contractName": "Faucet",
  "abi": [
    {
      "inputs": [
        {
          "internalType": "uint256",
          "name": "",
          "type": "uint256"
        }
      ],
      "name": "funders",
      "outputs": [
        {
          "internalType": "address",
          "name": "",
          "type": "address"
        }
      ],
      "stateMutability": "view",
      "type": "function",
      "constant": true
    },
    {
      "stateMutability": "payable",
      "type": "receive",
      "payable": true
    },
    {
      "inputs": [],
      "name": "addFunds",
      "outputs": [],
      "stateMutability": "payable",
      "type": "function",
      "payable": true
    },
    {
      "inputs": [],
      "name": "justTesting",
      "outputs": [
        {
          "internalType": "uint256",
          "name": "",
          "type": "uint256"
        }
      ],
      "stateMutability": "pure",
      "type": "function",
      "constant": true
    },
    {
      "inputs": [],
      "name": "getAllFunders",
      "outputs": [
        {
          "internalType": "address[]",
          "name": "",
          "type": "address[]"
        }
      ],
      "stateMutability": "view",
      "type": "function",
      "constant": true
    },
    {
      "inputs": [
        {
          "internalType": "uint8",
          "name": "index",
          "type": "uint8"
        }
      ],
      "name": "getFunderAtIndex",
      "outputs": [
        {
          "internalType": "address",
          "name": "",
          "type": "address"
        }
      ],
      "stateMutability": "view",
      "type": "function",
      "constant": true
    }
  ],
  "bytecode": "0x608060405234801561001057600080fd5b5061053b806100206000396000f3fe60806040526004361061004e5760003560e01c80630a93cf331461005a5780636fbbb55d14610097578063a23f8a3d146100c2578063a26759cb146100ed578063dc0d3dff146100f757610055565b3661005557005b600080fd5b34801561006657600080fd5b50610081600480360381019061007c91906102e0565b610134565b60405161008e919061034e565b60405180910390f35b3480156100a357600080fd5b506100ac610167565b6040516100b99190610427565b60405180910390f35b3480156100ce57600080fd5b506100d76101f5565b6040516100e49190610462565b60405180910390f35b6100f56101fe565b005b34801561010357600080fd5b5061011e600480360381019061011991906104a9565b610263565b60405161012b919061034e565b60405180910390f35b60008061013f610167565b9050808360ff1681518110610157576101566104d6565b5b6020026020010151915050919050565b606060008054806020026020016040519081016040528092919081815260200182805480156101eb57602002820191906000526020600020905b8160009054906101000a900473ffffffffffffffffffffffffffffffffffffffff1673ffffffffffffffffffffffffffffffffffffffff16815260200190600101908083116101a1575b5050505050905090565b60006004905090565b6000339080600181540180825580915050600190039060005260206000200160009091909190916101000a81548173ffffffffffffffffffffffffffffffffffffffff021916908373ffffffffffffffffffffffffffffffffffffffff160217905550565b6000818154811061027357600080fd5b906000526020600020016000915054906101000a900473ffffffffffffffffffffffffffffffffffffffff1681565b600080fd5b600060ff82169050919050565b6102bd816102a7565b81146102c857600080fd5b50565b6000813590506102da816102b4565b92915050565b6000602082840312156102f6576102f56102a2565b5b6000610304848285016102cb565b91505092915050565b600073ffffffffffffffffffffffffffffffffffffffff82169050919050565b60006103388261030d565b9050919050565b6103488161032d565b82525050565b6000602082019050610363600083018461033f565b92915050565b600081519050919050565b600082825260208201905092915050565b6000819050602082019050919050565b61039e8161032d565b82525050565b60006103b08383610395565b60208301905092915050565b6000602082019050919050565b60006103d482610369565b6103de8185610374565b93506103e983610385565b8060005b8381101561041a57815161040188826103a4565b975061040c836103bc565b9250506001810190506103ed565b5085935050505092915050565b6000602082019050818103600083015261044181846103c9565b905092915050565b6000819050919050565b61045c81610449565b82525050565b60006020820190506104776000830184610453565b92915050565b61048681610449565b811461049157600080fd5b50565b6000813590506104a38161047d565b92915050565b6000602082840312156104bf576104be6102a2565b5b60006104cd84828501610494565b91505092915050565b7f4e487b7100000000000000000000000000000000000000000000000000000000600052603260045260246000fdfea2646970667358221220f337833bb0d7ac16908ecbea3c8a47800e76671f3ef296c5de0a3a5f7fea4cfd64736f6c63430008130033",
  "immutableReferences": {},
  "source": "// SPDX-License-Identifier: MIT\r\npragma solidity >=0.8.19 <0.9.0;\r\n\r\ncontract Faucet {\r\n    // Storage variables\r\n    // uint public funds = 1000; //unit = uint256 =10100...\r\n    // int public counter = -10;\r\n    // uint32 public test = 4294967295;\r\n\r\n    address[] public funders;\r\n\r\n    receive() external payable {}\r\n\r\n    function addFunds() external payable {\r\n        funders.push(msg.sender);\r\n    }\r\n\r\n    function justTesting() external pure returns (uint) {\r\n        return 2 + 2;\r\n    }\r\n\r\n    function getAllFunders() public view returns (address[] memory) {\r\n        return funders;\r\n    }\r\n\r\n    function getFunderAtIndex(uint8 index) external view returns(address) {\r\n        address[] memory _funders = getAllFunders();\r\n        return _funders[index];\r\n    }\r\n}\r\n\r\n// const instance = await Faucet.deployed()\r\n// truffle migrate --reset\r\n//  truffle console\r\n",
  "sourcePath": "C:\\Users\\Hassan\\Desktop\\proj\\blockchain\\faucet\\contracts\\FaucetContract.sol",
  "compiler": {
    "name": "solc",
    "version": "0.8.19+commit.7dd6d404.Emscripten.clang"
  },
  "schemaVersion": "3.4.16",
  "updatedAt": "2024-09-14T14:46:24.054Z",
  "networkType": "ethereum",
  "devdoc": {
    "kind": "dev",
    "methods": {},
    "version": 1
  },
  "userdoc": {
    "kind": "user",
    "methods": {},
    "version": 1
  }
}