{
  "contractName": "Faucet",
  "abi": [
    {
      "stateMutability": "payable",
      "type": "receive",
      "payable": true
    },
    {
      "inputs": [],
      "name": "addFunds",
      "outputs": [],
      "stateMutability": "payable",
      "type": "function",
      "payable": true
    },
    {
      "inputs": [],
      "name": "justTesting",
      "outputs": [
        {
          "internalType": "uint256",
          "name": "",
          "type": "uint256"
        }
      ],
      "stateMutability": "pure",
      "type": "function",
      "constant": true
    }
  ],
  "bytecode": "0x608060405234801561001057600080fd5b5060d38061001f6000396000f3fe60806040526004361060295760003560e01c8063a23f8a3d146034578063a26759cb14605a57602f565b36602f57005b600080fd5b348015603f57600080fd5b5060466062565b604051605191906084565b60405180910390f35b6060606b565b005b60006004905090565b565b6000819050919050565b607e81606d565b82525050565b6000602082019050609760008301846077565b9291505056fea264697066735822122004c3b940f9301fee3587c19fe447e6b29671816e4098380837ff9f2364a0d1df64736f6c63430008130033",
  "immutableReferences": {},
  "source": "// SPDX-License-Identifier: MIT\r\npragma solidity >=0.8.19 <0.9.0;\r\n\r\ncontract Faucet {\r\n\r\n  // Storage variables\r\n  // uint public funds = 1000; //unit = uint256 =10100...\r\n  // int public counter = -10; \r\n  // uint32 public test = 4294967295;\r\n\r\n\r\n  receive() external payable {} \r\n\r\n  function addFunds() external payable {}\r\n\r\n  function justTesting() external pure returns(uint){\r\n    return 2 + 2;\r\n  }\r\n\r\n}\r\n\r\n",
  "sourcePath": "C:\\Users\\hassa\\OneDrive\\Desktop\\Projects\\blockchain\\faucet\\contracts\\FaucetContract.sol",
  "compiler": {
    "name": "solc",
    "version": "0.8.19+commit.7dd6d404.Emscripten.clang"
  },
  "schemaVersion": "3.4.16",
  "updatedAt": "2024-09-09T08:45:46.626Z",
  "networkType": "ethereum",
  "devdoc": {
    "kind": "dev",
    "methods": {},
    "version": 1
  },
  "userdoc": {
    "kind": "user",
    "methods": {},
    "version": 1
  }
}