{
  "contractName": "Faucet",
  "abi": [
    {
      "stateMutability": "payable",
      "type": "receive",
      "payable": true
    },
    {
      "inputs": [],
      "name": "addFunds",
      "outputs": [],
      "stateMutability": "payable",
      "type": "function",
      "payable": true
    },
    {
      "inputs": [],
      "name": "justTesting",
      "outputs": [
        {
          "internalType": "uint256",
          "name": "",
          "type": "uint256"
        }
      ],
      "stateMutability": "pure",
      "type": "function",
      "constant": true
    },
    {
      "inputs": [],
      "name": "getAllFunders",
      "outputs": [
        {
          "internalType": "address[]",
          "name": "",
          "type": "address[]"
        }
      ],
      "stateMutability": "view",
      "type": "function",
      "constant": true
    },
    {
      "inputs": [
        {
          "internalType": "uint8",
          "name": "index",
          "type": "uint8"
        }
      ],
      "name": "getFunderAtIndex",
      "outputs": [
        {
          "internalType": "address",
          "name": "",
          "type": "address"
        }
      ],
      "stateMutability": "view",
      "type": "function",
      "constant": true
    }
  ],
  "bytecode": "0x608060405234801561001057600080fd5b5061045b806100206000396000f3fe6080604052600436106100435760003560e01c80630a93cf331461004f5780636fbbb55d1461008c578063a23f8a3d146100b7578063a26759cb146100e25761004a565b3661004a57005b600080fd5b34801561005b57600080fd5b5061007660048036038101906100719190610259565b6100ec565b60405161008391906102c7565b60405180910390f35b34801561009857600080fd5b506100a161011f565b6040516100ae91906103a0565b60405180910390f35b3480156100c357600080fd5b506100cc6101ad565b6040516100d991906103db565b60405180910390f35b6100ea6101b6565b005b6000806100f761011f565b9050808360ff168151811061010f5761010e6103f6565b5b6020026020010151915050919050565b606060008054806020026020016040519081016040528092919081815260200182805480156101a357602002820191906000526020600020905b8160009054906101000a900473ffffffffffffffffffffffffffffffffffffffff1673ffffffffffffffffffffffffffffffffffffffff1681526020019060010190808311610159575b5050505050905090565b60006004905090565b6000339080600181540180825580915050600190039060005260206000200160009091909190916101000a81548173ffffffffffffffffffffffffffffffffffffffff021916908373ffffffffffffffffffffffffffffffffffffffff160217905550565b600080fd5b600060ff82169050919050565b61023681610220565b811461024157600080fd5b50565b6000813590506102538161022d565b92915050565b60006020828403121561026f5761026e61021b565b5b600061027d84828501610244565b91505092915050565b600073ffffffffffffffffffffffffffffffffffffffff82169050919050565b60006102b182610286565b9050919050565b6102c1816102a6565b82525050565b60006020820190506102dc60008301846102b8565b92915050565b600081519050919050565b600082825260208201905092915050565b6000819050602082019050919050565b610317816102a6565b82525050565b6000610329838361030e565b60208301905092915050565b6000602082019050919050565b600061034d826102e2565b61035781856102ed565b9350610362836102fe565b8060005b8381101561039357815161037a888261031d565b975061038583610335565b925050600181019050610366565b5085935050505092915050565b600060208201905081810360008301526103ba8184610342565b905092915050565b6000819050919050565b6103d5816103c2565b82525050565b60006020820190506103f060008301846103cc565b92915050565b7f4e487b7100000000000000000000000000000000000000000000000000000000600052603260045260246000fdfea26469706673582212200fb80302b271cb966d449619e0ae3c5268bc6cbfacb766a5192e405ec3e3d6bb64736f6c63430008130033",
  "immutableReferences": {},
  "source": "// SPDX-License-Identifier: MIT\r\npragma solidity >=0.8.19 <0.9.0;\r\n\r\ncontract Faucet {\r\n    // Storage variables\r\n    // uint public funds = 1000; //unit = uint256 =10100...\r\n    // int public counter = -10;\r\n    // uint32 public test = 4294967295;\r\n\r\n    address[] private funders;\r\n\r\n    receive() external payable {}\r\n\r\n    function addFunds() external payable {\r\n        funders.push(msg.sender);\r\n    }\r\n\r\n    function justTesting() external pure returns (uint) {\r\n        return 2 + 2;\r\n    }\r\n\r\n    function getAllFunders() public view returns (address[] memory) {\r\n        return funders;\r\n    }\r\n\r\n    function getFunderAtIndex(uint8 index) external view returns(address) {\r\n        address[] memory _funders = getAllFunders();\r\n        return _funders[index];\r\n    }\r\n}\r\n\r\n\r\n// --CHEAT--\r\n\r\n// truffle migrate --reset\r\n// truffle console\r\n// const instance = await Faucet.deployed()\r\n// instance.addFunds({from: accounts[0], value:\"2\"})\r\n// instance.getFunderAtIndex(0)\r\n// instance.getAllFunders()",
  "sourcePath": "C:\\Users\\Hassan\\Desktop\\proj\\blockchain\\faucet\\contracts\\FaucetContract.sol",
  "compiler": {
    "name": "solc",
    "version": "0.8.19+commit.7dd6d404.Emscripten.clang"
  },
  "schemaVersion": "3.4.16",
  "updatedAt": "2024-09-17T13:30:01.222Z",
  "networkType": "ethereum",
  "devdoc": {
    "kind": "dev",
    "methods": {},
    "version": 1
  },
  "userdoc": {
    "kind": "user",
    "methods": {},
    "version": 1
  }
}